:020000040000FA
:020000000528D1
:06000A0036200A20302020
:100010004520062805150000000000000000000033
:1000200000000000000000000000000000000511BA
:10003000851DA30A851000000000000000000000DC
:1000400000008514A20A08302202031C1828A2010D
:100050000000000000000000000000008510080003
:10006000A30803190800A3018601080083160317DB
:100070008901880103138601880185018515831292
:1000800000308800FF30860008000130A6001C30D8
:10009000A500BD30A400A40B4B28A50B4928A60B36
:0A00A0004728FF308600080000002A
:02400E00F22F8F
:02401000FF3F70
:00000001FF
