:020000040000FA
:020000000528D1
:06000A0045200A20302011
:100010005420062805150000000000000000000024
:1000200000000000000000000000000000000511BA
:10003000851DA30A85100310A30D00000000000019
:1000400000008514A20A08302202031C1828A2010D
:100050000000000000000000000000008510080003
:10006000A30803190800231A3C28A3193F282319C1
:1000700042288601A30108000F3086003A28F0309C
:1000800086003A28AA3086003A2883160317890189
:1000900088010313860188018501851583120030CC
:1000A0008800FF30860008000130A6001C30A50043
:1000B000BD30A400A40B5A28A50B5828A60B56281F
:0800C000FF308600080000007B
:02400E00F22F8F
:02401000FF3F70
:00000001FF
