:020000040000FA
:020000000528D1
:06000A00A9201020BE2019
:10001000A008031D06282C20662053208D200628CA
:100020003808B7003908B0002008303E84000008C6
:10003000A8008600200823208800A00A2008073C8A
:10004000031CA001080082077F34BF34DF34EF3483
:10005000F734FB34FD34FE34A201851400000000A7
:100060000000000000000000000000000000000090
:10007000000000008510051DA30A05100310A30D44
:1000800000000000000000000514A20A083022024F
:10009000031C3B28A201000000000000000000003B
:1000A000000005100800A30803190800A3195C2824
:1000B00023196128A3010800B81B5A280310B80DA2
:1000C0005A2838185A280310B80C5A28A2010516C5
:1000D0000000000000000000000000000000000020
:1000E00000000000000000000512851EA40A851112
:1000F0000310A40D00000000000000008515A20AF6
:1001000008302202031C7528A20100000000000034
:1001100000000000000085110800A4080319080071
:10012000241A9628A4199B28A4010800B91B942816
:100130000310B90D942839185A280310B90C9428C3
:100140001830B8001830B9003808B7003908B000C6
:100150000800B001B101B201B301B401B501B601AB
:10016000B701A020831603178901880103138601B4
:100170008801850105158516831208000130A70046
:100180000330A600BD30A500A50BC428A60BC228CD
:08019000A70BC02808000000C5
:02400E00F22F8F
:02401000FF3F70
:00000001FF
