:020000040000FA
:020000000528D1
:020008002E28A0
:06000A00831603178901B3
:100010008801031386018801833081008B168B17BA
:1000200083122B20003088008600A001A10100006F
:1000300017288207FE34FD34FB34F734EF34DF3405
:10004000BF347F348207013402340434083410345E
:10005000203440348034FF30810008000B193120F7
:1000600009000B110F30A5006830A4008A30A300EE
:10007000A30B3828A40B3628A50B342820081920F8
:100080008600210822208800A00A083020020318D8
:10009000A001A10A083021020318A1012B200800A9
:0200A00000005E
:02400E00F22F8F
:02401000FF3F70
:00000001FF
