:020000040000FA
:020000000528D1
:020008002F289F
:06000A00831603178901B3
:100010008801031386018801833081008B168B17BA
:1000200083122C2000308800FF308600A001A1013F
:10003000000018288207FE34FD34FB34F734EF3417
:10004000DF34BF347F34820701340234043408348F
:100050001034203440348034FF30810008000B1904
:10006000322009000B110F30A5006830A4008A303F
:10007000A300A30B3928A40B3728A50B352820088B
:100080001A208800210823208600A00A08302002B8
:100090000318A001A10A083021020318A1012C2095
:0400A0000800000054
:02400E00F22F8F
:02401000FF3F70
:00000001FF
